:100000000C9434000C9451000C9451000C94510049
:100010000C9451000C9451000C9451000C9451001C
:100020000C9451000C9451000C9451000C9451000C
:100030000C9451000C9451000C9451000C945100FC
:100040000C9451000C9451000C9451000C945100EC
:100050000C9451000C9451000C9451000C945100DC
:100060000C9451000C94510011241FBECFEFD8E026
:10007000DEBFCDBF11E0A0E0B1E0E2EFF3E002C0EF
:1000800005900D92A634B107D9F711E0A6E4B1E0CE
:1000900001C01D92A734B107E1F70E94F1000C9452
:1000A000F7010C9400001092C00086E08093C2001B
:1000B00088E18093C1001092C50083E38093C4005F
:1000C0000895982F8091C00085FFFCCF9093C600C3
:1000D00008958091C00087FFFCCF8091C6000895ED
:1000E000FC0107C08091C00085FFFCCF3196909342
:1000F000C60090819923B1F70895882329F480B729
:1001000082958695817008958FB1829586958170CC
:100110000895482F882339F480B782958695817099
:1001200030E020E006C08FB1F8CF303410F080E02E
:100130000895442311F490B701C09FB1929596950C
:100140009170891751F03F5F442311F480B701C0CB
:100150008FB182958695817020E02F5F2F3F29F720
:10016000806808951F93CF93DF93182F882319F089
:10017000CBE5D0E002C0C2E5D0E080EC8883812FDF
:100180000E948900803851F4888388818F3B10F564
:10019000812F0E948900813821F41EC0813849F0E6
:1001A0001BC0812F0E9489008823B1F088818F5F56
:1001B000EBCF88818F3F71F0812F0E9489008038BA
:1001C00059F0812F0E948900882331F088818F5F48
:1001D0008883EFCF80EC88838881DF91CF911F9156
:1001E0000895EF92FF921F93DF93CF93CDB7DEB7C1
:1001F0002A970FB6F894DEBF0FBECDBF81E00E94F4
:10020000B501429A80E991E00197F1F786B190E05B
:100210009695879596958795182F11700E94530093
:1002200080ED80937C0080917D00816080937D00D3
:100230008AE08093A0001092A100112329F487E4A2
:1002400081BF80E480BF04C087E48ABB80E48FB9AB
:10025000579A5F98812F0E94B20057987E010894A8
:10026000E11CF11C112351F480E091E00E94700028
:1002700086E191E00E94700082B709C083E291E0BC
:100280000E94700089E391E00E9470008BB790E0BB
:10029000B70140E150E00E94BD01CE0101960E94ED
:1002A00070000000FECF8FB780934601F894089548
:1002B000809146018FBF08958FEF84BF84BF08955A
:1002C0008FE784BF84BF0895E0EFF0E08081826013
:1002D00090E8908380830895E0EFF0E080818D7F47
:1002E00090E8908380830895E0EFF0E08081816062
:1002F00090E8908380830895E0EFF0E080818E7F26
:1003000090E89083808308958130C1F48091F20059
:10031000846090E89093F2008093F2008AE68A95D8
:10032000F1F78091F2008F7980629093F2008093D0
:10033000F200909361001092610008958823A1F467
:1003400090E89093610081E0809361008091F200D9
:100350008F799093F2008093F2008091F2008B7F6E
:100360009093F2008093F20008958F708068E1E628
:10037000F0E090E8908380830895FB019F01423074
:1003800074F0453264F4642F77270E94E301805DA6
:100390008A330CF0895D8193CB010097A1F710821D
:1003A000C9010C94D301DC01FC01672F7191772303
:1003B000E1F7329704C07C916D9370836291AE1720
:1003C000BF07C8F30895AA1BBB1B51E107C0AA1FB2
:1003D000BB1FA617B70710F0A61BB70B881F991FE6
:1003E0005A95A9F780959095BC01CD010895F89490
:0203F000FFCF3D
:1003F2000D0A20414330207472696D6D696E672069
:10040200646F6E6521000D0A2043305452203D2056
:100412003078000D0A20414331207472696D6D6994
:100422006E6720646F6E6521000D0A2043315452BD
:06043200203D203078009F
:00000001FF
