:100000000C9434000C9451000C9451000C94510049
:100010000C9451000C9451000C9451000C9451001C
:100020000C9451000C9451000C9451000C9451000C
:100030000C9451000C9451000C9451000C945100FC
:100040000C9451000C9451000C9451000C945100EC
:100050000C9451000C9451000C9451000C945100DC
:100060000C9451000C94510011241FBECFEFD8E026
:10007000DEBFCDBF12E0A0E0B1E0E0EDF3E102C0F1
:1000800005900D92AC3CB107D9F712E0ACECB2E0B0
:1000900001C01D92A33EB107E1F70E9424010C9418
:1000A000E6090C940000EAE7F0E080E1808380EC50
:1000B00080937C0085E080838081806880830895C0
:1000C00080917A00806480937A0080917A0086FD26
:1000D000FCCF0895982F8F3231F480917D0082609B
:1000E00080937D00089580917D008D7F80937D00B9
:1000F00080917C00807E80937C0080917C009F7149
:10010000892B80937C000895982F843061F480912E
:10011000CC008093C8008091AD0080648093AD00D6
:1001200010927C000895823019F48091CE0002C0B4
:100130008091CD008093C8009295990F990F907C83
:1001400090937C000895DF93CF930F92CDB7DEB7E5
:10015000198280917A00806480937A0080917A007D
:1001600086FDFCCF809178008983409179002981B8
:10017000942F80E030E0282B392BC9010F90CF91CC
:10018000DF910895EF92FF920F931F930E946A00F0
:100190000DE710E0F8018081806280830E94A30057
:1001A0007C01F80180818F7D80830E94A3009C01E7
:1001B0002E0D3F1DC901880F892F881F990B91951E
:1001C00036952795281B390BC9011F910F91FF9078
:1001D000EF9008950F931F93CF93DF93082FC0E004
:1001E000D0E010E0802F0E94C200C80FD91F1F5F0F
:1001F0001830C1F79E0163E0369527956A95E1F7BF
:10020000C901DF91CF911F910F9108950E94530072
:10021000EDE7F0E080818160808381E00E946A00E8
:1002200084ED8093DC008FE20E946A0080E8809376
:10023000DE008AE08093DD0088EE93E00197F1F71D
:100240008FE20E94EA000895EF92FF920F931F93AE
:10025000CF93DF9380E593EC0197F1F70E940601BD
:100260009093D8028093D7020E9453008FE20E949D
:100270006A0082EC8093DC0080917D008160809335
:100280007D000E94DD0180E091E00E94FA0182E39E
:1002900091E00E94FA018AE591E00E94FA018CE760
:1002A00091E00E94FA01C4E6D0E08FE20E94EA00E9
:1002B0009C019093DE028093DD028091D7029091A1
:1002C000D8028217930750F48091D7029091D802F8
:1002D000281B390B3093DE022093DD026091DD0292
:1002E0007091DE0280E090E00E94710620E030E034
:1002F00048EC52E40E94470420E030E040E85CE330
:100300000E9447047B018C0120E030E048EC52E47D
:100310000E943309AC01CB01DA018093DF02909394
:10032000E002A093E102B093E202C801B70120E02D
:1003300030E048EC52E40E9441056093D90270938A
:10034000DA028093DB029093DC020E947102DC01EE
:10035000CB016DEC72E04AE050E00E9416098CEA95
:1003600091E00E94FA018DEC92E00E94FA018EE287
:100370000E94EB016091DF027091E0028091E10246
:100380009091E2020E947102DC01CB016DEC72E0FF
:100390004AE050E00E9416098DEC92E00E94FA01BA
:1003A0008EEB91E00E94FA01000088EB9BE0FE01D9
:1003B0003197F1F70197D9F778CF1092C00086E016
:1003C0008093C20088E18093C1001092C5008CE048
:1003D0008093C4000895982F8091C00085FFFCCFC2
:1003E0009093C60008958091C00087FFFCCF809154
:1003F000C6000895FC0107C08091C00085FFFCCFB6
:1004000031969093C60090819923B1F708958FB7E4
:100410008093CC02F89408958091CC028FBF089508
:100420008FEF84BF84BF08958FE784BF84BF089592
:10043000E0EFF0E08081826090E89083808308950F
:10044000E0EFF0E080818D7F90E8908380830895D5
:10045000E0EFF0E08081816090E8908380830895F0
:10046000E0EFF0E080818E7F90E8908380830895B4
:100470008130C1F48091F200846090E89093F200A2
:100480008093F2008AE18A95F1F78091F2008F79EA
:1004900080629093F2008093F2009093610010923A
:1004A000610008958823A1F490E89093610081E0B1
:1004B000809361008091F2008F799093F200809395
:1004C000F2008091F2008B7F9093F2008093F20013
:1004D00008958F708068E1E6F0E090E89083808373
:1004E0000895EF92FF920F931F937B018C0120E000
:1004F00030E040E05FE40E94ED0588238CF0C80105
:10050000B70120E030E040E05FE40E94E9030E9490
:100510001D069B01AC01205030404040504806C0B1
:10052000C801B7010E941D069B01AC01B901CA01B7
:100530001F910F91FF90EF900895A0E0B0E0E3EAE3
:10054000F2E00C94DF08DC012B01FA019C9192305F
:1005500008F439C1EB018881823008F433C194304A
:1005600069F4843009F02FC111969C91119789810B
:10057000981709F428C1A3ECB1E025C1843009F42F
:1005800021C18230A9F4923009F01DC19A01AD0158
:1005900088E0EA010990AE01E90109929E018150CB
:1005A000C1F7E201898111969C918923818308C159
:1005B000923009F407C112962D903C901397EB01ED
:1005C0008A819B811496AD90BD90CD90DC90179759
:1005D000EC80FD800E811F819101281B390BB90130
:1005E00037FF04C066277727621B730B60327105E3
:1005F0000CF061C0121613066CF537014801062E87
:1006000004C096948794779467940A94D2F721E073
:1006100030E040E050E004C0220F331F441F551F5C
:100620006A95D2F721503040404050402E213F2162
:1006300040235123211531054105510521F021E0C9
:1006400030E040E050E079018A01E628F7280829E7
:1006500019293CC0232BD1F1260E371E3501460146
:10066000062E04C096948794779467940A94D2F7E0
:1006700021E030E040E050E004C0220F331F441F6F
:10068000551F6A95D2F721503040404050402A21F2
:100690003B214C215D21211531054105510521F0FA
:1006A00021E030E040E050E059016A01A628B72877
:1006B000C828D9280BC0821593052CF01C01AA2448
:1006C000BB24650103C0EE24FF24870111969C9191
:1006D000D20111968C91981709F445C0992339F0ED
:1006E000A80197012A193B094C095D0906C0A6011A
:1006F00095012E193F09400B510B57FD08C011827F
:100700003382228224833583468357831DC081E050
:1007100081833382228288279927DC01821B930BF5
:10072000A40BB50B84839583A683B7830DC0220FDA
:10073000331F441F551F248335834683578382818B
:1007400093810197938382832481358146815781E8
:10075000DA01C9010197A109B1098F5F9F4FAF4F1E
:10076000BF4328F30BC0918333822282EA0CFB1C27
:100770000C1D1D1DE482F5820683178383E08083B0
:10078000248135814681578157FF1AC0C901AA27A4
:1007900097FDA095BA2F81709070A070B07056959B
:1007A000479537952795822B932BA42BB52B8483C4
:1007B0009583A683B78382819381019693838283F5
:1007C000DF0101C0D201CD01CDB7DEB7E2E10C946B
:1007D000FB08A0E2B0E0EFEEF3E00C94EB086983D5
:1007E0007A838B839C832D833E834F835887E9E0F4
:1007F000EE2EF12CEC0EFD1ECE010196B7010E94EB
:100800000E088E010F5E1F4FCE010596B8010E94A3
:100810000E088A8991E089278A8BC701B801AE0149
:10082000475E5F4F0E949D020E943907A096E6E056
:100830000C940709A0E2B0E0E0E2F4E00C94EB08CD
:1008400069837A838B839C832D833E834F83588770
:10085000F9E0EF2EF12CEC0EFD1ECE010196B70152
:100860000E940E088E010F5E1F4FCE010596B80143
:100870000E940E08C701B801AE01475E5F4F0E949B
:100880009D020E943907A096E6E00C940709A0E2B9
:10089000B0E0EDE4F4E00C94DF0869837A838B83A5
:1008A0009C832D833E834F835887CE010196BE01E2
:1008B000675F7F4F0E940E08CE010596BE016F5EF6
:1008C0007F4F0E940E089985923088F08989823086
:1008D000C8F0943019F4823051F404C0843029F403
:1008E000923081F483EC91E0C6C0923049F420E06C
:1008F0009A858A89981321E02A87CE010996BBC080
:10090000823049F420E09A858A89981321E02A8B65
:10091000CE014196B0C02D843E844F8458886D88A6
:100920007E888F88988CEE24FF248701AA24BB241C
:10093000650140E050E060E070E0E0E0F0E0C1011F
:1009400081709070892BE9F0E60CF71C081D191DC9
:100950009A01AB012A0D3B1D4C1D5D1D80E090E00E
:10096000A0E0B0E0E614F7040805190520F481E0E2
:1009700090E0A0E0B0E0BA01A901480F591F6A1F3A
:100980007B1FAA0CBB1CCC1CDD1C97FE08C081E0A1
:1009900090E0A0E0B0E0A82AB92ACA2ADB2A319662
:1009A000E032F10549F0660C771C881C991C5694BE
:1009B000479437942794C3CFFA85EA892B893C89D9
:1009C0008B859C85280F391F2E5F3F4F17C0CA01AA
:1009D00081709070892B61F016950795F794E794D4
:1009E00080E090E0A0E0B0E8E82AF92A0A2B1B2B6F
:1009F00076956795579547952F5F3F4F77FDE7CFE2
:100A00000CC0440F551F661F771F17FD4160EE0C89
:100A1000FF1C001F111F21503040403090E059074B
:100A200090E0690790E4790760F32B8F3C8FDB013E
:100A3000CA018F779070A070B07080349105A105C5
:100A4000B10561F447FD0AC0E114F1040105110587
:100A500029F0405C5F4F6F4F7F4F40781A8EFE1732
:100A600011F081E08A8F4D8F5E8F6F8F78A383E0C6
:100A7000898FCE0149960E943907A096E2E10C9435
:100A8000FB08A8E1B0E0E7E4F5E00C94E70869832F
:100A90007A838B839C832D833E834F835887B9E071
:100AA000EB2EF12CEC0EFD1ECE010196B7010E943B
:100AB0000E088E010F5E1F4FCE010596B8010E94F1
:100AC0000E082985223008F47EC03989323010F4AE
:100AD000B8017CC08A859A8989278A87243011F0D9
:100AE000223031F4231709F06EC063EC71E06EC060
:100AF000343039F41D861E861F86188A1C861B8694
:100B000004C0323021F484E08987B7015FC02B85AF
:100B10003C858B899C89281B390B3C872B87ED846E
:100B2000FE840F851889AD88BE88CF88D88CEA14DA
:100B3000FB040C051D0540F4EE0CFF1C001F111FEB
:100B4000215030403C872B8720E030E040E050E0EF
:100B500080E090E0A0E0B0E460E070E0EA14FB0424
:100B60000C051D0540F0282B392B4A2B5B2BEA186E
:100B7000FB080C091D09B695A79597958795EE0C6E
:100B8000FF1C001F111F6F5F7F4F6F31710531F721
:100B9000DA01C9018F779070A070B0708034910530
:100BA000A105B10561F427FD0AC0E114F1040105B6
:100BB000110529F0205C3F4F4F4F5F4F20782D8764
:100BC0003E874F87588BBE01675F7F4FCB010E94E6
:100BD00039076896EAE00C940309A8E1B0E0E3EF76
:100BE000F5E00C94EB0869837A838B839C832D83D7
:100BF0003E834F83588789E0E82EF12CEC0EFD1ED2
:100C0000CE010196B7010E940E088E010F5E1F4FA4
:100C1000CE010596B8010E940E088985823040F009
:100C20008989823028F0C701B8010E94860801C076
:100C30008FEF6896E6E00C940709ACE0B0E0E3E2E1
:100C4000F6E00C94EF0869837A838B839C83CE0152
:100C50000196BE016B5F7F4F0E940E088D8182302E
:100C600061F1823050F1843021F48E81882351F17A
:100C70002EC02F81388537FD20C06E812F31310580
:100C80001CF06623F9F023C08EE190E0821B930BE9
:100C900029853A854B855C8504C0569547953795DF
:100CA00027958A95D2F76623B1F0509540953095F7
:100CB00021953F4F4F4F5F4F0EC020E030E040E0A6
:100CC00050E009C02FEF3FEF4FEF5FE704C020E097
:100CD00030E040E050E8B901CA012C96E2E00C9403
:100CE0000B09A8E0B0E0E7E7F6E00C94E7087B0129
:100CF0008C01611571058105910519F482E08983E4
:100D000060C083E089838EE1C82ED12CDC82CB8247
:100D1000ED82FE820F831887C801B7010E94EA06A0
:100D2000FC013197F7FF3BC0222733272E1B3F0BD7
:100D300057016801022E04C0D694C794B794A794B3
:100D40000A94D2F740E050E060E070E081E090E08B
:100D5000A0E0B0E004C0880F991FAA1FBB1F2A950E
:100D6000D2F70197A109B1098E219F21A023B123B8
:100D70000097A105B10521F041E050E060E070E08E
:100D80004A295B296C297D294D835E836F8378878F
:100D90008EE190E08E1B9F0B9C838B8312C030975B
:100DA00081F00E2E04C0EE0CFF1C001F111F0A94D0
:100DB000D2F7ED82FE820F831887CE1ADF0ADC821B
:100DC000CB821A82CE0101960E9439072896EAE06A
:100DD0000C940309EF92FF920F931F937B018C01F8
:100DE00080E0E81680E0F80681E0080780E0180758
:100DF00088F48FEFE816F1040105110531F028F0B1
:100E000088E090E0A0E0B0E017C080E090E0A0E0D3
:100E1000B0E012C080E0E81680E0F80680E0080745
:100E200081E0180728F088E190E0A0E0B0E004C07D
:100E300080E190E0A0E0B0E020E230E040E050E06F
:100E4000281B390B4A0B5B0B04C016950795F794CA
:100E5000E7948A95D2F7F701E553FE4F8081281B6E
:100E6000310941095109C9011F910F91FF90EF907C
:100E70000895DF92EF92FF920F931F93FC01E4809D
:100E8000F58006811781D1808081823048F480E02E
:100E900090E0A0E1B0E0E82AF92A0A2B1B2BA5C0BC
:100EA000843009F49FC0823021F4EE24FF248701AE
:100EB00005C0E114F1040105110519F4E0E0F0E0CA
:100EC00096C0628173819FEF623879070CF05BC036
:100ED00022E83FEF261B370B2A3131052CF020E0AA
:100EE00030E040E050E02AC0B801A701022E04C063
:100EF00076956795579547950A94D2F781E090E0EB
:100F0000A0E0B0E004C0880F991FAA1FBB1F2A955C
:100F1000D2F70197A109B1098E219F21A023B12306
:100F20000097A105B10521F081E090E0A0E0B0E0DC
:100F30009A01AB01282B392B4A2B5B2BDA01C90113
:100F40008F779070A070B07080349105A105B105C5
:100F500039F427FF09C0205C3F4F4F4F5F4F04C05B
:100F6000215C3F4F4F4F5F4FE0E0F0E02030A0E0CA
:100F70003A07A0E04A07A0E45A0710F0E1E0F0E0E9
:100F800079018A0127C06038710564F5FB01E158D9
:100F9000FF4FD801C7018F779070A070B070803478
:100FA0009105A105B10539F4E7FE0DC080E490E09C
:100FB000A0E0B0E004C08FE390E0A0E0B0E0E80E75
:100FC000F91E0A1F1B1F17FF05C016950795F794FA
:100FD000E794319687E016950795F794E7948A95FC
:100FE000D1F705C0EE24FF248701EFEFF0E06E2F6C
:100FF000679566276795902F9F77D794DD24D794C0
:101000008E2F8695492F462B582F5D29B701CA018F
:101010001F910F91FF90EF90DF900895FC01DB018D
:10102000408151812281622F6F7770E0221F222739
:10103000221F9381892F880F822B282F30E0991F40
:101040009927991F11969C93119721153105A9F5A0
:10105000411551056105710511F482E037C082E840
:101060009FEF13969C938E9312979A01AB0167E0C2
:10107000220F331F441F551F6A95D1F783E08C93CD
:101080000DC0220F331F441F551F12968D919C9146
:101090001397019713969C938E931297203080E0BC
:1010A000380780E0480780E4580758F314962D93DA
:1010B0003D934D935C93179708952F3F310579F435
:1010C000411551056105710519F484E08C9308956B
:1010D00064FF03C081E08C9312C01C9210C02F5794
:1010E000304013963C932E93129783E08C9387E0C5
:1010F000440F551F661F771F8A95D1F770641496A9
:101100004D935D936D937C93179708951F93DC0126
:10111000FB019C91923008F447C08081823008F432
:1011200043C0943051F411961C91843099F581811B
:10113000682F70E0611B71093FC0843021F092304C
:1011400031F48230B9F18181882389F12DC0119663
:101150001C9111978230F1F081811817D9F4129601
:101160002D913C911397828193818217930794F07C
:1011700028173907BCF014968D919D910D90BC9164
:10118000A02D2481358146815781281739074A07C8
:101190005B0718F4112341F00AC082179307A407D4
:1011A000B50740F4112319F061E070E005C06FEF5E
:1011B0007FEF02C060E070E0CB011F9108952F9295
:1011C0003F924F925F926F927F928F929F92AF92D7
:1011D000BF92CF92DF92EF92FF920F931F93CF9324
:1011E000DF93CDB7DEB7CA1BDB0B0FB6F894DEBFBB
:1011F0000FBECDBF09942A88398848885F846E84E1
:101200007D848C849B84AA84B984C884DF80EE802A
:10121000FD800C811B81AA81B981CE0FD11D0FB633
:10122000F894DEBF0FBECDBFED010895FB019F0115
:10123000423074F0453264F4642F77270E94D2095B
:10124000805D8A330CF0895D8193CB010097A1F713
:101250001082C9010C94C2095ED018F011F062D05E
:1012600038F456C089C0E92F64D0B0F35523C9F3D0
:10127000E7FB6217730784079507A8F199F3E92F35
:10128000FF2788232AF03197660F771F881FDAF728
:10129000952F5527442332F091505040220F331F91
:1012A000441FD2F7BB27E91BF50B621B730B840BA2
:1012B000B109C1F222F4620F731F841FB11D31976F
:1012C0002AF0660F771F881FBB1FEFCF9150504049
:1012D0005AF041F0882332F0660F771F881F915033
:1012E0005040C1F7939506C08695779567959F5FA7
:1012F000D9F7F8CF9F3F31F0915020F4879577953B
:101300006795B795880F911D9695879597F90895DC
:101310009FEF80EC089500240A941616170618060D
:101320000906089500240A941216130614060506E9
:10133000089557FD9058440F551F59F05F3F71F0C5
:101340004795880F97FB991F61F09F3F79F087952C
:101350000895121613061406551FF2CF4695F1DFB5
:1013600008C0161617061806991FF1CF8695710545
:10137000610508940895E894BB2766277727CB0179
:1013800097F90895DC01FC01672F71917723E1F74C
:10139000329704C07C916D9370836291AE17BF0742
:1013A000C8F30895AA1BBB1B51E107C0AA1FBB1FAE
:1013B000A617B70710F0A61BB70B881F991F5A95E1
:1013C000A9F780959095BC01CD010895F894FFCFC1
:1013D0000D0A3D3D3D3D3D3D3D3D3D3D3D3D3D3DA0
:1013E0003D3D3D3D3D3D3D3D3D3D3D3D3D3D3D3D2D
:1013F0003D3D3D3D3D3D3D3D3D3D3D3D3D3D200D6A
:101400000A004C475438463332385020536F6674C4
:101410007761726520446576656C6F70656D656E89
:1014200074204B697473200D0A002A2A2A2A20414D
:1014300044432F444150204D6F64756C65205573B3
:10144000616765202A2A2A2A200D0A003D3D3D3D7C
:101450003D3D3D3D3D3D3D3D3D3D3D3D3D3D3D3DBC
:101460003D3D3D3D3D3D3D3D3D3D3D3D3D3D3D3DAC
:101470003D3D3D3D3D3D3D3D200D0A003E3E20446D
:101480004150204F7574707574203A3D20006D56A0
:101490000D0A00000000000000000000010202032D
:1014A00003030304040404040404040505050505FA
:1014B00005050505050505050505050606060606D7
:1014C00006060606060606060606060606060606BC
:1014D00006060606060606060606060707070707A7
:1014E000070707070707070707070707070707078C
:1014F000070707070707070707070707070707077C
:10150000070707070707070707070707070707076B
:101510000707070707070707070707080808080856
:10152000080808080808080808080808080808083B
:10153000080808080808080808080808080808082B
:10154000080808080808080808080808080808081B
:10155000080808080808080808080808080808080B
:1015600008080808080808080808080808080808FB
:1015700008080808080808080808080808080808EB
:1015800008080808080808080808080808080808DB
:0C159000080808080808080808080800F7
:00000001FF
