:100000000C9434000C9446000C9446000C9446006A
:100010000C9446000C9446000C9446000C94460048
:100020000C9446000C9446000C9446000C94460038
:100030000C9446000C9446000C9446000C94460028
:100040000C9446000C9446000C9446000C94460018
:100050000C9446000C9446000C9446000C94460008
:100060000C9446000C94460011241FBECFEFD8E03C
:10007000DEBFCDBF11E0A0E0B1E001C01D92A23112
:10008000B107E1F70E94DD000C94C0010C94000060
:100090008091CE008093C800EAE7F0E080E18083A1
:1000A00080E880937C0083E0808380818068808307
:1000B000089580917A00806480937A0080917A001C
:1000C00086FDFCCF089590917C00907E90937C00FB
:1000D00020917C00982F9F71922B90937C008F33FE
:1000E00021F480917D00826003C080917D008D7F2E
:1000F00080937D000895982F843061F48091CC0026
:100100008093C8008091AD0080648093AD00109210
:100110007C000895823019F48091CE0002C0809155
:10012000CD008093C8009295990F990F907C909381
:100130007C000895DF93CF930F92CDB7DEB719827D
:1001400080917A00806480937A0080917A0086FDA5
:10015000FCCF809178008983409179002981942F88
:1001600080E030E0282B392BC9010F90CF91DF912F
:100170000895EF92FF920F931F930E9463000DE783
:1001800010E0F8018081806280830E949A007C01E7
:10019000F80180818F7D80830E949A009C012E0D42
:1001A0003F1D832F992736952795281B390BC901A9
:1001B0001F910F91FF90EF900895CF93DF9381E00F
:1001C0000E94B8010E944800C0E9D1E084E00E948A
:1001D000B90090930F0180930E0184E00E94B90052
:1001E00090930D0180930C0184E00E94B9009093DC
:1001F0000B0180930A0184E00E94B90090930901E9
:100200008093080184E00E94B900909307018093D5
:1002100006012091080130910901820F931F20915E
:100220000A0130910B01820F931F20910C01309134
:100230000D01820F931F23E0969587952A95E1F78C
:10024000909311018093100180E197E2FE013197B4
:10025000F1F70197D9F7BACF1092C00086E08093EA
:10026000C20088E18093C1001092C50083E38093AF
:10027000C4000895982F8091C00085FFFCCF909313
:10028000C60008958091C00087FFFCCF8091C60012
:100290000895FC0107C08091C00085FFFCCF319616
:1002A0009093C60090819923B1F708958FB78093FA
:1002B0000001F8940895809100018FBF08958FEF99
:1002C00084BF84BF08958FE784BF84BF0895E0EFA3
:1002D000F0E08081826090E8908380830895E0EF71
:1002E000F0E080818D7F90E8908380830895E0EF37
:1002F000F0E08081816090E8908380830895E0EF52
:10030000F0E080818E7F90E8908380830895813033
:10031000C1F48091F200846090E89093F2008093A1
:10032000F2008AE68A95F1F78091F2008F79806277
:100330009093F2008093F20090936100109261001C
:1003400008958823A1F490E89093610081E0809360
:1003500061008091F2008F799093F2008093F20017
:100360008091F2008B7F9093F2008093F2000895C9
:100370008F708068E1E6F0E090E8908380830895D4
:04038000F894FFCF1F
:00000001FF
